{
  "_format": "hh-sol-artifact-1",
  "contractName": "ChainRegistry",
  "sourceName": "contracts/ChainRegistry.sol",
  "abi": [
    {
      "inputs": [],
      "stateMutability": "nonpayable",
      "type": "constructor"
    },
    {
      "inputs": [
        {
          "internalType": "uint256",
          "name": "",
          "type": "uint256"
        }
      ],
      "name": "AllUsers",
      "outputs": [
        {
          "internalType": "address",
          "name": "",
          "type": "address"
        }
      ],
      "stateMutability": "view",
      "type": "function"
    },
    {
      "inputs": [
        {
          "internalType": "address",
          "name": "",
          "type": "address"
        },
        {
          "internalType": "uint256",
          "name": "",
          "type": "uint256"
        }
      ],
      "name": "MyLands",
      "outputs": [
        {
          "internalType": "uint256",
          "name": "",
          "type": "uint256"
        }
      ],
      "stateMutability": "view",
      "type": "function"
    },
    {
      "inputs": [
        {
          "internalType": "address",
          "name": "",
          "type": "address"
        }
      ],
      "name": "UserMapping",
      "outputs": [
        {
          "internalType": "address",
          "name": "id",
          "type": "address"
        },
        {
          "internalType": "string",
          "name": "name",
          "type": "string"
        },
        {
          "internalType": "uint256",
          "name": "age",
          "type": "uint256"
        },
        {
          "internalType": "string",
          "name": "city",
          "type": "string"
        },
        {
          "internalType": "string",
          "name": "aadharNumber",
          "type": "string"
        },
        {
          "internalType": "string",
          "name": "panNumber",
          "type": "string"
        },
        {
          "internalType": "string",
          "name": "document",
          "type": "string"
        },
        {
          "internalType": "string",
          "name": "email",
          "type": "string"
        },
        {
          "internalType": "bool",
          "name": "isUserVerified",
          "type": "bool"
        }
      ],
      "stateMutability": "view",
      "type": "function"
    },
    {
      "inputs": [
        {
          "internalType": "string[]",
          "name": "_coordinates",
          "type": "string[]"
        },
        {
          "internalType": "uint256",
          "name": "_area",
          "type": "uint256"
        },
        {
          "internalType": "string",
          "name": "_address",
          "type": "string"
        },
        {
          "internalType": "uint256",
          "name": "landPrice",
          "type": "uint256"
        },
        {
          "internalType": "uint256",
          "name": "_propertyPID",
          "type": "uint256"
        },
        {
          "internalType": "string",
          "name": "_surveyNum",
          "type": "string"
        },
        {
          "internalType": "string",
          "name": "_document",
          "type": "string"
        }
      ],
      "name": "addLand",
      "outputs": [],
      "stateMutability": "nonpayable",
      "type": "function"
    },
    {
      "inputs": [
        {
          "internalType": "address",
          "name": "_addr",
          "type": "address"
        },
        {
          "internalType": "string",
          "name": "_name",
          "type": "string"
        },
        {
          "internalType": "uint256",
          "name": "_age",
          "type": "uint256"
        },
        {
          "internalType": "string",
          "name": "_designation",
          "type": "string"
        },
        {
          "internalType": "string",
          "name": "_city",
          "type": "string"
        }
      ],
      "name": "addLekhpal",
      "outputs": [
        {
          "internalType": "bool",
          "name": "",
          "type": "bool"
        }
      ],
      "stateMutability": "nonpayable",
      "type": "function"
    },
    {
      "inputs": [
        {
          "internalType": "address",
          "name": "_addr",
          "type": "address"
        },
        {
          "internalType": "string",
          "name": "_name",
          "type": "string"
        },
        {
          "internalType": "uint256",
          "name": "_age",
          "type": "uint256"
        },
        {
          "internalType": "string",
          "name": "_tehsil",
          "type": "string"
        }
      ],
      "name": "addTehsildar",
      "outputs": [
        {
          "internalType": "bool",
          "name": "",
          "type": "bool"
        }
      ],
      "stateMutability": "nonpayable",
      "type": "function"
    },
    {
      "inputs": [
        {
          "internalType": "uint256",
          "name": "",
          "type": "uint256"
        },
        {
          "internalType": "uint256",
          "name": "",
          "type": "uint256"
        }
      ],
      "name": "allLandList",
      "outputs": [
        {
          "internalType": "uint256",
          "name": "",
          "type": "uint256"
        }
      ],
      "stateMutability": "view",
      "type": "function"
    },
    {
      "inputs": [
        {
          "internalType": "uint256",
          "name": "",
          "type": "uint256"
        },
        {
          "internalType": "uint256",
          "name": "",
          "type": "uint256"
        }
      ],
      "name": "allUsersList",
      "outputs": [
        {
          "internalType": "address",
          "name": "",
          "type": "address"
        }
      ],
      "stateMutability": "view",
      "type": "function"
    },
    {
      "inputs": [
        {
          "internalType": "address",
          "name": "_addr",
          "type": "address"
        }
      ],
      "name": "changeSDM",
      "outputs": [],
      "stateMutability": "nonpayable",
      "type": "function"
    },
    {
      "inputs": [
        {
          "internalType": "uint256",
          "name": "_id",
          "type": "uint256"
        },
        {
          "internalType": "uint256",
          "name": "_ownerNum",
          "type": "uint256"
        }
      ],
      "name": "checkPastOwner",
      "outputs": [
        {
          "internalType": "address",
          "name": "",
          "type": "address"
        }
      ],
      "stateMutability": "view",
      "type": "function"
    },
    {
      "inputs": [],
      "name": "getLekhpalList",
      "outputs": [
        {
          "internalType": "address[]",
          "name": "",
          "type": "address[]"
        }
      ],
      "stateMutability": "view",
      "type": "function"
    },
    {
      "inputs": [
        {
          "internalType": "uint256",
          "name": "_id",
          "type": "uint256"
        }
      ],
      "name": "getPastOwners",
      "outputs": [
        {
          "internalType": "address[]",
          "name": "",
          "type": "address[]"
        }
      ],
      "stateMutability": "view",
      "type": "function"
    },
    {
      "inputs": [],
      "name": "getTehsildarList",
      "outputs": [
        {
          "internalType": "address[]",
          "name": "",
          "type": "address[]"
        }
      ],
      "stateMutability": "view",
      "type": "function"
    },
    {
      "inputs": [],
      "name": "getUnverifiedLands",
      "outputs": [
        {
          "internalType": "uint256[]",
          "name": "",
          "type": "uint256[]"
        }
      ],
      "stateMutability": "view",
      "type": "function"
    },
    {
      "inputs": [],
      "name": "getUnverifiedUsers",
      "outputs": [
        {
          "internalType": "address[]",
          "name": "",
          "type": "address[]"
        }
      ],
      "stateMutability": "view",
      "type": "function"
    },
    {
      "inputs": [
        {
          "internalType": "uint256",
          "name": "_id",
          "type": "uint256"
        }
      ],
      "name": "getcoordinates",
      "outputs": [
        {
          "internalType": "string[]",
          "name": "",
          "type": "string[]"
        }
      ],
      "stateMutability": "view",
      "type": "function"
    },
    {
      "inputs": [
        {
          "internalType": "address",
          "name": "_addr",
          "type": "address"
        }
      ],
      "name": "getlands",
      "outputs": [
        {
          "components": [
            {
              "internalType": "uint256",
              "name": "id",
              "type": "uint256"
            },
            {
              "internalType": "uint256",
              "name": "area",
              "type": "uint256"
            },
            {
              "internalType": "string",
              "name": "landAddress",
              "type": "string"
            },
            {
              "internalType": "uint256",
              "name": "landPrice",
              "type": "uint256"
            },
            {
              "internalType": "string[]",
              "name": "allLatitudeLongitude",
              "type": "string[]"
            },
            {
              "internalType": "uint256",
              "name": "propertyPID",
              "type": "uint256"
            },
            {
              "internalType": "string",
              "name": "physicalSurveyNumber",
              "type": "string"
            },
            {
              "internalType": "string",
              "name": "document",
              "type": "string"
            },
            {
              "internalType": "bool",
              "name": "isforSell",
              "type": "bool"
            },
            {
              "internalType": "address",
              "name": "ownerAddress",
              "type": "address"
            },
            {
              "internalType": "bool",
              "name": "isLandVerified",
              "type": "bool"
            },
            {
              "internalType": "address[]",
              "name": "pastOwners",
              "type": "address[]"
            }
          ],
          "internalType": "struct ChainRegistry.Landreg[]",
          "name": "",
          "type": "tuple[]"
        }
      ],
      "stateMutability": "view",
      "type": "function"
    },
    {
      "inputs": [
        {
          "internalType": "uint256",
          "name": "id",
          "type": "uint256"
        }
      ],
      "name": "isLandVerified",
      "outputs": [
        {
          "internalType": "bool",
          "name": "",
          "type": "bool"
        }
      ],
      "stateMutability": "view",
      "type": "function"
    },
    {
      "inputs": [
        {
          "internalType": "address",
          "name": "_addr",
          "type": "address"
        }
      ],
      "name": "isLekhpal",
      "outputs": [
        {
          "internalType": "bool",
          "name": "",
          "type": "bool"
        }
      ],
      "stateMutability": "view",
      "type": "function"
    },
    {
      "inputs": [
        {
          "internalType": "address",
          "name": "_addr",
          "type": "address"
        }
      ],
      "name": "isSDM",
      "outputs": [
        {
          "internalType": "bool",
          "name": "",
          "type": "bool"
        }
      ],
      "stateMutability": "view",
      "type": "function"
    },
    {
      "inputs": [
        {
          "internalType": "address",
          "name": "_addr",
          "type": "address"
        }
      ],
      "name": "isTehsildar",
      "outputs": [
        {
          "internalType": "bool",
          "name": "",
          "type": "bool"
        }
      ],
      "stateMutability": "view",
      "type": "function"
    },
    {
      "inputs": [
        {
          "internalType": "address",
          "name": "_addr",
          "type": "address"
        }
      ],
      "name": "isUserRegistered",
      "outputs": [
        {
          "internalType": "bool",
          "name": "",
          "type": "bool"
        }
      ],
      "stateMutability": "view",
      "type": "function"
    },
    {
      "inputs": [
        {
          "internalType": "address",
          "name": "id",
          "type": "address"
        }
      ],
      "name": "isUserVerified",
      "outputs": [
        {
          "internalType": "bool",
          "name": "",
          "type": "bool"
        }
      ],
      "stateMutability": "view",
      "type": "function"
    },
    {
      "inputs": [
        {
          "internalType": "uint256",
          "name": "",
          "type": "uint256"
        }
      ],
      "name": "lands",
      "outputs": [
        {
          "internalType": "uint256",
          "name": "id",
          "type": "uint256"
        },
        {
          "internalType": "uint256",
          "name": "area",
          "type": "uint256"
        },
        {
          "internalType": "string",
          "name": "landAddress",
          "type": "string"
        },
        {
          "internalType": "uint256",
          "name": "landPrice",
          "type": "uint256"
        },
        {
          "internalType": "uint256",
          "name": "propertyPID",
          "type": "uint256"
        },
        {
          "internalType": "string",
          "name": "physicalSurveyNumber",
          "type": "string"
        },
        {
          "internalType": "string",
          "name": "document",
          "type": "string"
        },
        {
          "internalType": "bool",
          "name": "isforSell",
          "type": "bool"
        },
        {
          "internalType": "address",
          "name": "ownerAddress",
          "type": "address"
        },
        {
          "internalType": "bool",
          "name": "isLandVerified",
          "type": "bool"
        }
      ],
      "stateMutability": "view",
      "type": "function"
    },
    {
      "inputs": [],
      "name": "landsCount",
      "outputs": [
        {
          "internalType": "uint256",
          "name": "",
          "type": "uint256"
        }
      ],
      "stateMutability": "view",
      "type": "function"
    },
    {
      "inputs": [],
      "name": "lekhpalCount",
      "outputs": [
        {
          "internalType": "uint256",
          "name": "",
          "type": "uint256"
        }
      ],
      "stateMutability": "view",
      "type": "function"
    },
    {
      "inputs": [
        {
          "internalType": "uint256",
          "name": "",
          "type": "uint256"
        },
        {
          "internalType": "uint256",
          "name": "",
          "type": "uint256"
        }
      ],
      "name": "lekhpalList",
      "outputs": [
        {
          "internalType": "address",
          "name": "",
          "type": "address"
        }
      ],
      "stateMutability": "view",
      "type": "function"
    },
    {
      "inputs": [
        {
          "internalType": "address",
          "name": "",
          "type": "address"
        }
      ],
      "name": "lekhpalMapping",
      "outputs": [
        {
          "internalType": "address",
          "name": "_addr",
          "type": "address"
        },
        {
          "internalType": "string",
          "name": "name",
          "type": "string"
        },
        {
          "internalType": "uint256",
          "name": "age",
          "type": "uint256"
        },
        {
          "internalType": "string",
          "name": "designation",
          "type": "string"
        },
        {
          "internalType": "string",
          "name": "city",
          "type": "string"
        }
      ],
      "stateMutability": "view",
      "type": "function"
    },
    {
      "inputs": [
        {
          "internalType": "uint256",
          "name": "_resultsPerPage",
          "type": "uint256"
        },
        {
          "internalType": "uint256",
          "name": "_page",
          "type": "uint256"
        }
      ],
      "name": "paginateLands",
      "outputs": [
        {
          "components": [
            {
              "internalType": "uint256",
              "name": "id",
              "type": "uint256"
            },
            {
              "internalType": "uint256",
              "name": "area",
              "type": "uint256"
            },
            {
              "internalType": "string",
              "name": "landAddress",
              "type": "string"
            },
            {
              "internalType": "uint256",
              "name": "landPrice",
              "type": "uint256"
            },
            {
              "internalType": "string[]",
              "name": "allLatitudeLongitude",
              "type": "string[]"
            },
            {
              "internalType": "uint256",
              "name": "propertyPID",
              "type": "uint256"
            },
            {
              "internalType": "string",
              "name": "physicalSurveyNumber",
              "type": "string"
            },
            {
              "internalType": "string",
              "name": "document",
              "type": "string"
            },
            {
              "internalType": "bool",
              "name": "isforSell",
              "type": "bool"
            },
            {
              "internalType": "address",
              "name": "ownerAddress",
              "type": "address"
            },
            {
              "internalType": "bool",
              "name": "isLandVerified",
              "type": "bool"
            },
            {
              "internalType": "address[]",
              "name": "pastOwners",
              "type": "address[]"
            }
          ],
          "internalType": "struct ChainRegistry.Landreg[]",
          "name": "",
          "type": "tuple[]"
        }
      ],
      "stateMutability": "view",
      "type": "function"
    },
    {
      "inputs": [
        {
          "internalType": "string",
          "name": "_name",
          "type": "string"
        },
        {
          "internalType": "uint256",
          "name": "_age",
          "type": "uint256"
        },
        {
          "internalType": "string",
          "name": "_city",
          "type": "string"
        },
        {
          "internalType": "string",
          "name": "_aadharNumber",
          "type": "string"
        },
        {
          "internalType": "string",
          "name": "_panNumber",
          "type": "string"
        },
        {
          "internalType": "string",
          "name": "_document",
          "type": "string"
        },
        {
          "internalType": "string",
          "name": "_email",
          "type": "string"
        }
      ],
      "name": "registerUser",
      "outputs": [],
      "stateMutability": "nonpayable",
      "type": "function"
    },
    {
      "inputs": [
        {
          "internalType": "address",
          "name": "_addr",
          "type": "address"
        }
      ],
      "name": "removeLekhpal",
      "outputs": [],
      "stateMutability": "nonpayable",
      "type": "function"
    },
    {
      "inputs": [
        {
          "internalType": "address",
          "name": "_addr",
          "type": "address"
        }
      ],
      "name": "removeTehsildar",
      "outputs": [],
      "stateMutability": "nonpayable",
      "type": "function"
    },
    {
      "inputs": [],
      "name": "tehsildarCount",
      "outputs": [
        {
          "internalType": "uint256",
          "name": "",
          "type": "uint256"
        }
      ],
      "stateMutability": "view",
      "type": "function"
    },
    {
      "inputs": [
        {
          "internalType": "address",
          "name": "",
          "type": "address"
        }
      ],
      "name": "tehsildarMapping",
      "outputs": [
        {
          "internalType": "address",
          "name": "_addr",
          "type": "address"
        },
        {
          "internalType": "string",
          "name": "name",
          "type": "string"
        },
        {
          "internalType": "uint256",
          "name": "age",
          "type": "uint256"
        },
        {
          "internalType": "string",
          "name": "tehsil",
          "type": "string"
        }
      ],
      "stateMutability": "view",
      "type": "function"
    },
    {
      "inputs": [
        {
          "internalType": "address",
          "name": "_from",
          "type": "address"
        },
        {
          "internalType": "address",
          "name": "_to",
          "type": "address"
        },
        {
          "internalType": "uint256",
          "name": "_id",
          "type": "uint256"
        }
      ],
      "name": "transferOwnership",
      "outputs": [
        {
          "internalType": "bool",
          "name": "",
          "type": "bool"
        }
      ],
      "stateMutability": "nonpayable",
      "type": "function"
    },
    {
      "inputs": [],
      "name": "userCount",
      "outputs": [
        {
          "internalType": "uint256",
          "name": "",
          "type": "uint256"
        }
      ],
      "stateMutability": "view",
      "type": "function"
    },
    {
      "inputs": [
        {
          "internalType": "uint256",
          "name": "_id",
          "type": "uint256"
        }
      ],
      "name": "verifyLand",
      "outputs": [],
      "stateMutability": "nonpayable",
      "type": "function"
    },
    {
      "inputs": [
        {
          "internalType": "address",
          "name": "_userAddr",
          "type": "address"
        }
      ],
      "name": "verifyUser",
      "outputs": [],
      "stateMutability": "nonpayable",
      "type": "function"
    }
  ],
  "bytecode": "0x608060405234801561001057600080fd5b50336000806101000a81548173ffffffffffffffffffffffffffffffffffffffff021916908373ffffffffffffffffffffffffffffffffffffffff16021790555061576e80620000616000396000f3fe608060405234801561001057600080fd5b50600436106102325760003560e01c806381ccba9111610130578063cd796def116100b8578063edfbe2471161007c578063edfbe247146107b1578063f103142d146107cd578063f3614e87146107eb578063f89b86ad14610807578063f9c43bdf1461083757610232565b8063cd796def146106b0578063d5cc823e146106e0578063d61ff68c14610710578063df75e4d714610748578063e261f1e51461077857610232565b8063a79bb24f116100ff578063a79bb24f146105e6578063ace417e014610616578063b0c4ff0e14610646578063b74b352714610676578063ccfa82961461069457610232565b806381ccba911461054c57806384cf46d81461056a57806396ba3ffa1461059a5780639f801a23146105ca57610232565b80633d7687c2116101be57806354547d581161018257806354547d5814610470578063545d0caf146104a05780636cbf6cf8146104d0578063720a279714610500578063741aa61b1461053057610232565b80633d7687c2146103a2578063402db23e146103c057806344ea9572146103f057806347ef9f20146104205780634d8131201461045457610232565b80631c9afd0f116102055780631c9afd0f146102e857806325ec0646146103065780632de828a414610324578063352a0f091461035457806335b2d9931461037257610232565b806307973ccf14610237578063163f752214610255578063171c00fd1461028557806317ddc540146102b5575b600080fd5b61023f610853565b60405161024c9190613dc6565b60405180910390f35b61026f600480360381019061026a9190613e53565b610859565b60405161027c9190613e9b565b60405180910390f35b61029f600480360381019061029a9190613ee2565b6108c0565b6040516102ac9190613e9b565b60405180910390f35b6102cf60048036038101906102ca9190613e53565b610a85565b6040516102df9493929190613fd4565b60405180910390f35b6102f0610be5565b6040516102fd9190613dc6565b60405180910390f35b61030e610beb565b60405161031b91906140e5565b60405180910390f35b61033e6004803603810190610339919061423c565b610cdd565b60405161034b9190613e9b565b60405180910390f35b61035c610f32565b60405161036991906143c9565b60405180910390f35b61038c60048036038101906103879190613e53565b6110ce565b6040516103999190613e9b565b60405180910390f35b6103aa611135565b6040516103b79190613dc6565b60405180910390f35b6103da60048036038101906103d59190613e53565b61113b565b6040516103e79190613e9b565b60405180910390f35b61040a600480360381019061040591906143eb565b6111a4565b604051610417919061442b565b60405180910390f35b61043a60048036038101906104359190613e53565b6111f2565b60405161044b959493929190614446565b60405180910390f35b61046e60048036038101906104699190613e53565b6113e0565b005b61048a600480360381019061048591906143eb565b611462565b604051610497919061442b565b60405180910390f35b6104ba60048036038101906104b591906143eb565b6114b0565b6040516104c7919061442b565b60405180910390f35b6104ea60048036038101906104e591906144ae565b61150d565b6040516104f79190613e9b565b60405180910390f35b61051a600480360381019061051591906144db565b61153a565b6040516105279190613dc6565b60405180910390f35b61054a60048036038101906105459190613e53565b61156b565b005b6105546118e0565b6040516105619190613dc6565b60405180910390f35b610584600480360381019061057f91906144ae565b6118e6565b6040516105919190614627565b60405180910390f35b6105b460048036038101906105af91906144ae565b6119d5565b6040516105c1919061442b565b60405180910390f35b6105e460048036038101906105df919061472f565b611a08565b005b61060060048036038101906105fb9190613e53565b611db3565b60405161060d9190613e9b565b60405180910390f35b610630600480360381019061062b9190613e53565b611e1a565b60405161063d9190613e9b565b60405180910390f35b610660600480360381019061065b91906143eb565b611e73565b60405161066d9190613dc6565b60405180910390f35b61067e611ea4565b60405161068b91906143c9565b60405180910390f35b6106ae60048036038101906106a99190613e53565b611fbb565b005b6106ca60048036038101906106c59190614841565b6122f1565b6040516106d79190613e9b565b60405180910390f35b6106fa60048036038101906106f59190613e53565b612568565b6040516107079190614bc6565b60405180910390f35b61072a60048036038101906107259190613e53565b612a97565b60405161073f99989796959493929190614be8565b60405180910390f35b610762600480360381019061075d91906143eb565b612e42565b60405161076f9190614bc6565b60405180910390f35b610792600480360381019061078d91906144ae565b61331f565b6040516107a89a99989796959493929190614c9f565b60405180910390f35b6107cb60048036038101906107c69190614d50565b613545565b005b6107d561386f565b6040516107e291906143c9565b60405180910390f35b61080560048036038101906108009190613e53565b613986565b005b610821600480360381019061081c91906144ae565b613a57565b60405161082e91906143c9565b60405180910390f35b610851600480360381019061084c91906144ae565b613afb565b005b60015481565b6000600b60008373ffffffffffffffffffffffffffffffffffffffff1673ffffffffffffffffffffffffffffffffffffffff16815260200190815260200160002060009054906101000a900460ff16156108b657600190506108bb565b600090505b919050565b60006108cb33611db3565b61090a576040517f08c379a000000000000000000000000000000000000000000000000000000000815260040161090190614f0c565b60405180910390fd5b61091384611e1a565b61091c57600080fd5b61092583611e1a565b61092e57600080fd5b6109378261150d565b61094057600080fd5b8373ffffffffffffffffffffffffffffffffffffffff16600c600084815260200190815260200160002060080160019054906101000a900473ffffffffffffffffffffffffffffffffffffffff1673ffffffffffffffffffffffffffffffffffffffff16146109ae57600080fd5b82600c600084815260200190815260200160002060080160016101000a81548173ffffffffffffffffffffffffffffffffffffffff021916908373ffffffffffffffffffffffffffffffffffffffff160217905550600c6000838152602001908152602001600020600901849080600181540180825580915050600190039060005260206000200160009091909190916101000a81548173ffffffffffffffffffffffffffffffffffffffff021916908373ffffffffffffffffffffffffffffffffffffffff160217905550600190509392505050565b600f6020528060005260406000206000915090508060000160009054906101000a900473ffffffffffffffffffffffffffffffffffffffff1690806001018054610ace90614f5b565b80601f0160208091040260200160405190810160405280929190818152602001828054610afa90614f5b565b8015610b475780601f10610b1c57610100808354040283529160200191610b47565b820191906000526020600020905b815481529060010190602001808311610b2a57829003601f168201915b505050505090806002015490806003018054610b6290614f5b565b80601f0160208091040260200160405190810160405280929190818152602001828054610b8e90614f5b565b8015610bdb5780601f10610bb057610100808354040283529160200191610bdb565b820191906000526020600020905b815481529060010190602001808311610bbe57829003601f168201915b5050505050905084565b60025481565b6060600060025467ffffffffffffffff811115610c0b57610c0a614111565b5b604051908082528060200260200182016040528015610c395781602001602082028036833780820191505090505b509050600080600190505b6002548111610cd45760001515600c600083815260200190815260200160002060080160159054906101000a900460ff16151503610cc157600c600082815260200190815260200160002060000154838381518110610ca657610ca5614f8c565b5b6020026020010181815250508180610cbd90614fea565b9250505b8080610ccc90614fea565b915050610c44565b50819250505090565b600060011515610cec33611db3565b151514610d2e576040517f08c379a0000000000000000000000000000000000000000000000000000000008152600401610d259061507e565b60405180910390fd5b6001600760008873ffffffffffffffffffffffffffffffffffffffff1673ffffffffffffffffffffffffffffffffffffffff16815260200190815260200160002060006101000a81548160ff0219169083151502179055506006600060018152602001908152602001600020869080600181540180825580915050600190039060005260206000200160009091909190916101000a81548173ffffffffffffffffffffffffffffffffffffffff021916908373ffffffffffffffffffffffffffffffffffffffff1602179055506040518060a001604052808773ffffffffffffffffffffffffffffffffffffffff16815260200186815260200185815260200184815260200183815250600560008873ffffffffffffffffffffffffffffffffffffffff1673ffffffffffffffffffffffffffffffffffffffff16815260200190815260200160002060008201518160000160006101000a81548173ffffffffffffffffffffffffffffffffffffffff021916908373ffffffffffffffffffffffffffffffffffffffff1602179055506020820151816001019081610ed3919061524a565b50604082015181600201556060820151816003019081610ef3919061524a565b506080820151816004019081610f09919061524a565b5090505060046000815480929190610f2090614fea565b91905055506001905095945050505050565b6060600060015467ffffffffffffffff811115610f5257610f51614111565b5b604051908082528060200260200182016040528015610f805781602001602082028036833780820191505090505b509050600080600190505b60015481116110c55760001515600860006009600085815260200190815260200160002060009054906101000a900473ffffffffffffffffffffffffffffffffffffffff1673ffffffffffffffffffffffffffffffffffffffff1673ffffffffffffffffffffffffffffffffffffffff16815260200190815260200160002060080160009054906101000a900460ff161515036110b2576009600082815260200190815260200160002060009054906101000a900473ffffffffffffffffffffffffffffffffffffffff1683838151811061106957611068614f8c565b5b602002602001019073ffffffffffffffffffffffffffffffffffffffff16908173ffffffffffffffffffffffffffffffffffffffff168152505081806110ae90614fea565b9250505b80806110bd90614fea565b915050610f8b565b50819250505090565b6000600760008373ffffffffffffffffffffffffffffffffffffffff1673ffffffffffffffffffffffffffffffffffffffff16815260200190815260200160002060009054906101000a900460ff161561112b5760019050611130565b600090505b919050565b60045481565b60008060009054906101000a900473ffffffffffffffffffffffffffffffffffffffff1673ffffffffffffffffffffffffffffffffffffffff168273ffffffffffffffffffffffffffffffffffffffff160361119a576001905061119f565b600090505b919050565b600660205281600052604060002081815481106111c057600080fd5b906000526020600020016000915091509054906101000a900473ffffffffffffffffffffffffffffffffffffffff1681565b60056020528060005260406000206000915090508060000160009054906101000a900473ffffffffffffffffffffffffffffffffffffffff169080600101805461123b90614f5b565b80601f016020809104026020016040519081016040528092919081815260200182805461126790614f5b565b80156112b45780601f10611289576101008083540402835291602001916112b4565b820191906000526020600020905b81548152906001019060200180831161129757829003601f168201915b5050505050908060020154908060030180546112cf90614f5b565b80601f01602080910402602001604051908101604052809291908181526020018280546112fb90614f5b565b80156113485780601f1061131d57610100808354040283529160200191611348565b820191906000526020600020905b81548152906001019060200180831161132b57829003601f168201915b50505050509080600401805461135d90614f5b565b80601f016020809104026020016040519081016040528092919081815260200182805461138990614f5b565b80156113d65780601f106113ab576101008083540402835291602001916113d6565b820191906000526020600020905b8154815290600101906020018083116113b957829003601f168201915b5050505050905085565b6113e981610859565b6113f257600080fd5b6113fb336110ce565b61140457600080fd5b6001600860008373ffffffffffffffffffffffffffffffffffffffff1673ffffffffffffffffffffffffffffffffffffffff16815260200190815260200160002060080160006101000a81548160ff02191690831515021790555050565b600a602052816000526040600020818154811061147e57600080fd5b906000526020600020016000915091509054906101000a900473ffffffffffffffffffffffffffffffffffffffff1681565b6000600c600084815260200190815260200160002060090182815481106114da576114d9614f8c565b5b9060005260206000200160009054906101000a900473ffffffffffffffffffffffffffffffffffffffff16905092915050565b6000600c600083815260200190815260200160002060080160159054906101000a900460ff169050919050565b600d602052816000526040600020818154811061155657600080fd5b90600052602060002001600091509150505481565b60008054906101000a900473ffffffffffffffffffffffffffffffffffffffff1673ffffffffffffffffffffffffffffffffffffffff163373ffffffffffffffffffffffffffffffffffffffff16146115f9576040517f08c379a00000000000000000000000000000000000000000000000000000000081526004016115f090615368565b60405180910390fd5b601160008273ffffffffffffffffffffffffffffffffffffffff1673ffffffffffffffffffffffffffffffffffffffff16815260200190815260200160002060009054906101000a900460ff16611685576040517f08c379a000000000000000000000000000000000000000000000000000000000815260040161167c906153d4565b60405180910390fd5b6000601160008373ffffffffffffffffffffffffffffffffffffffff1673ffffffffffffffffffffffffffffffffffffffff16815260200190815260200160002060006101000a81548160ff0219169083151502179055506000601060006001815260200190815260200160002080549050905060005b818110156118c3578273ffffffffffffffffffffffffffffffffffffffff166010600060018152602001908152602001600020828154811061174157611740614f8c565b5b9060005260206000200160009054906101000a900473ffffffffffffffffffffffffffffffffffffffff1673ffffffffffffffffffffffffffffffffffffffff16036118b05760106000600181526020019081526020016000206001836117a891906153f4565b815481106117b9576117b8614f8c565b5b9060005260206000200160009054906101000a900473ffffffffffffffffffffffffffffffffffffffff166010600060018152602001908152602001600020828154811061180a57611809614f8c565b5b9060005260206000200160006101000a81548173ffffffffffffffffffffffffffffffffffffffff021916908373ffffffffffffffffffffffffffffffffffffffff160217905550601060006001815260200190815260200160002080548061187657611875615428565b5b6001900381819060005260206000200160006101000a81549073ffffffffffffffffffffffffffffffffffffffff021916905590556118c3565b80806118bb90614fea565b9150506116fc565b50600360008154809291906118d790615457565b91905055505050565b60035481565b6060600c6000838152602001908152602001600020600401805480602002602001604051908101604052809291908181526020016000905b828210156119ca57838290600052602060002001805461193d90614f5b565b80601f016020809104026020016040519081016040528092919081815260200182805461196990614f5b565b80156119b65780601f1061198b576101008083540402835291602001916119b6565b820191906000526020600020905b81548152906001019060200180831161199957829003601f168201915b50505050508152602001906001019061191e565b505050509050919050565b60096020528060005260406000206000915054906101000a900473ffffffffffffffffffffffffffffffffffffffff1681565b611a1133611e1a565b611a1a57600080fd5b60026000815480929190611a2d90614fea565b91905055506040518061018001604052806002548152602001878152602001868152602001858152602001600067ffffffffffffffff811115611a7357611a72614111565b5b604051908082528060200260200182016040528015611aa657816020015b6060815260200190600190039081611a915790505b5081526020018481526020018381526020018281526020016000151581526020013373ffffffffffffffffffffffffffffffffffffffff168152602001600015158152602001600067ffffffffffffffff811115611b0757611b06614111565b5b604051908082528060200260200182016040528015611b355781602001602082028036833780820191505090505b50815250600c6000600254815260200190815260200160002060008201518160000155602082015181600101556040820151816002019081611b77919061524a565b50606082015181600301556080820151816004019080519060200190611b9e929190613bce565b5060a0820151816005015560c0820151816006019081611bbe919061524a565b5060e0820151816007019081611bd4919061524a565b506101008201518160080160006101000a81548160ff0219169083151502179055506101208201518160080160016101000a81548173ffffffffffffffffffffffffffffffffffffffff021916908373ffffffffffffffffffffffffffffffffffffffff1602179055506101408201518160080160156101000a81548160ff021916908315150217905550610160820151816009019080519060200190611c7c929190613c27565b50905050600d60003373ffffffffffffffffffffffffffffffffffffffff1673ffffffffffffffffffffffffffffffffffffffff168152602001908152602001600020600254908060018154018082558091505060019003906000526020600020016000909190919091505560005b8751811015611d6c57600c60006002548152602001908152602001600020600401888281518110611d1f57611d1e614f8c565b5b6020026020010151908060018154018082558091505060019003906000526020600020016000909190919091509081611d58919061524a565b508080611d6490614fea565b915050611ceb565b50600e600060018152602001908152602001600020600254908060018154018082558091505060019003906000526020600020016000909190919091505550505050505050565b6000601160008373ffffffffffffffffffffffffffffffffffffffff1673ffffffffffffffffffffffffffffffffffffffff16815260200190815260200160002060009054906101000a900460ff1615611e105760019050611e15565b600090505b919050565b6000600860008373ffffffffffffffffffffffffffffffffffffffff1673ffffffffffffffffffffffffffffffffffffffff16815260200190815260200160002060080160009054906101000a900460ff169050919050565b600e6020528160005260406000208181548110611e8f57600080fd5b90600052602060002001600091509150505481565b6060600060045467ffffffffffffffff811115611ec457611ec3614111565b5b604051908082528060200260200182016040528015611ef25781602001602082028036833780820191505090505b50905060005b600454811015611fb35760066000600181526020019081526020016000208181548110611f2857611f27614f8c565b5b9060005260206000200160009054906101000a900473ffffffffffffffffffffffffffffffffffffffff16828281518110611f6657611f65614f8c565b5b602002602001019073ffffffffffffffffffffffffffffffffffffffff16908173ffffffffffffffffffffffffffffffffffffffff16815250508080611fab90614fea565b915050611ef8565b508091505090565b60011515611fc833611db3565b15151461200a576040517f08c379a00000000000000000000000000000000000000000000000000000000081526004016120019061507e565b60405180910390fd5b600760008273ffffffffffffffffffffffffffffffffffffffff1673ffffffffffffffffffffffffffffffffffffffff16815260200190815260200160002060009054906101000a900460ff16612096576040517f08c379a000000000000000000000000000000000000000000000000000000000815260040161208d906154cc565b60405180910390fd5b6000600760008373ffffffffffffffffffffffffffffffffffffffff1673ffffffffffffffffffffffffffffffffffffffff16815260200190815260200160002060006101000a81548160ff0219169083151502179055506000600660006001815260200190815260200160002080549050905060005b818110156122d4578273ffffffffffffffffffffffffffffffffffffffff166006600060018152602001908152602001600020828154811061215257612151614f8c565b5b9060005260206000200160009054906101000a900473ffffffffffffffffffffffffffffffffffffffff1673ffffffffffffffffffffffffffffffffffffffff16036122c15760066000600181526020019081526020016000206001836121b991906153f4565b815481106121ca576121c9614f8c565b5b9060005260206000200160009054906101000a900473ffffffffffffffffffffffffffffffffffffffff166006600060018152602001908152602001600020828154811061221b5761221a614f8c565b5b9060005260206000200160006101000a81548173ffffffffffffffffffffffffffffffffffffffff021916908373ffffffffffffffffffffffffffffffffffffffff160217905550600660006001815260200190815260200160002080548061228757612286615428565b5b6001900381819060005260206000200160006101000a81549073ffffffffffffffffffffffffffffffffffffffff021916905590556122d4565b80806122cc90614fea565b91505061210d565b50600460008154809291906122e890615457565b91905055505050565b60003373ffffffffffffffffffffffffffffffffffffffff1660008054906101000a900473ffffffffffffffffffffffffffffffffffffffff1673ffffffffffffffffffffffffffffffffffffffff1614612381576040517f08c379a000000000000000000000000000000000000000000000000000000000815260040161237890615538565b60405180910390fd5b6001601160008773ffffffffffffffffffffffffffffffffffffffff1673ffffffffffffffffffffffffffffffffffffffff16815260200190815260200160002060006101000a81548160ff0219169083151502179055506010600060018152602001908152602001600020859080600181540180825580915050600190039060005260206000200160009091909190916101000a81548173ffffffffffffffffffffffffffffffffffffffff021916908373ffffffffffffffffffffffffffffffffffffffff16021790555060405180608001604052808673ffffffffffffffffffffffffffffffffffffffff16815260200185815260200184815260200183815250600f60008773ffffffffffffffffffffffffffffffffffffffff1673ffffffffffffffffffffffffffffffffffffffff16815260200190815260200160002060008201518160000160006101000a81548173ffffffffffffffffffffffffffffffffffffffff021916908373ffffffffffffffffffffffffffffffffffffffff1602179055506020820151816001019081612520919061524a565b50604082015181600201556060820151816003019081612540919061524a565b509050506003600081548092919061255790614fea565b919050555060019050949350505050565b6060600060025467ffffffffffffffff81111561258857612587614111565b5b6040519080825280602002602001820160405280156125c157816020015b6125ae613cb1565b8152602001906001900390816125a65790505b50905060005b600d60008573ffffffffffffffffffffffffffffffffffffffff1673ffffffffffffffffffffffffffffffffffffffff16815260200190815260200160002080549050811015612a8d57600c6000600d60008773ffffffffffffffffffffffffffffffffffffffff1673ffffffffffffffffffffffffffffffffffffffff168152602001908152602001600020838154811061266657612665614f8c565b5b906000526020600020015481526020019081526020016000206040518061018001604052908160008201548152602001600182015481526020016002820180546126af90614f5b565b80601f01602080910402602001604051908101604052809291908181526020018280546126db90614f5b565b80156127285780601f106126fd57610100808354040283529160200191612728565b820191906000526020600020905b81548152906001019060200180831161270b57829003601f168201915b505050505081526020016003820154815260200160048201805480602002602001604051908101604052809291908181526020016000905b8282101561280c57838290600052602060002001805461277f90614f5b565b80601f01602080910402602001604051908101604052809291908181526020018280546127ab90614f5b565b80156127f85780601f106127cd576101008083540402835291602001916127f8565b820191906000526020600020905b8154815290600101906020018083116127db57829003601f168201915b505050505081526020019060010190612760565b5050505081526020016005820154815260200160068201805461282e90614f5b565b80601f016020809104026020016040519081016040528092919081815260200182805461285a90614f5b565b80156128a75780601f1061287c576101008083540402835291602001916128a7565b820191906000526020600020905b81548152906001019060200180831161288a57829003601f168201915b505050505081526020016007820180546128c090614f5b565b80601f01602080910402602001604051908101604052809291908181526020018280546128ec90614f5b565b80156129395780601f1061290e57610100808354040283529160200191612939565b820191906000526020600020905b81548152906001019060200180831161291c57829003601f168201915b505050505081526020016008820160009054906101000a900460ff161515151581526020016008820160019054906101000a900473ffffffffffffffffffffffffffffffffffffffff1673ffffffffffffffffffffffffffffffffffffffff1673ffffffffffffffffffffffffffffffffffffffff1681526020016008820160159054906101000a900460ff1615151515815260200160098201805480602002602001604051908101604052809291908181526020018280548015612a5357602002820191906000526020600020905b8160009054906101000a900473ffffffffffffffffffffffffffffffffffffffff1673ffffffffffffffffffffffffffffffffffffffff1681526020019060010190808311612a09575b505050505081525050828281518110612a6f57612a6e614f8c565b5b60200260200101819052508080612a8590614fea565b9150506125c7565b5080915050919050565b60086020528060005260406000206000915090508060000160009054906101000a900473ffffffffffffffffffffffffffffffffffffffff1690806001018054612ae090614f5b565b80601f0160208091040260200160405190810160405280929190818152602001828054612b0c90614f5b565b8015612b595780601f10612b2e57610100808354040283529160200191612b59565b820191906000526020600020905b815481529060010190602001808311612b3c57829003601f168201915b505050505090806002015490806003018054612b7490614f5b565b80601f0160208091040260200160405190810160405280929190818152602001828054612ba090614f5b565b8015612bed5780601f10612bc257610100808354040283529160200191612bed565b820191906000526020600020905b815481529060010190602001808311612bd057829003601f168201915b505050505090806004018054612c0290614f5b565b80601f0160208091040260200160405190810160405280929190818152602001828054612c2e90614f5b565b8015612c7b5780601f10612c5057610100808354040283529160200191612c7b565b820191906000526020600020905b815481529060010190602001808311612c5e57829003601f168201915b505050505090806005018054612c9090614f5b565b80601f0160208091040260200160405190810160405280929190818152602001828054612cbc90614f5b565b8015612d095780601f10612cde57610100808354040283529160200191612d09565b820191906000526020600020905b815481529060010190602001808311612cec57829003601f168201915b505050505090806006018054612d1e90614f5b565b80601f0160208091040260200160405190810160405280929190818152602001828054612d4a90614f5b565b8015612d975780601f10612d6c57610100808354040283529160200191612d97565b820191906000526020600020905b815481529060010190602001808311612d7a57829003601f168201915b505050505090806007018054612dac90614f5b565b80601f0160208091040260200160405190810160405280929190818152602001828054612dd890614f5b565b8015612e255780601f10612dfa57610100808354040283529160200191612e25565b820191906000526020600020905b815481529060010190602001808311612e0857829003601f168201915b5050505050908060080160009054906101000a900460ff16905089565b606060008367ffffffffffffffff811115612e6057612e5f614111565b5b604051908082528060200260200182016040528015612e9957816020015b612e86613cb1565b815260200190600190039081612e7e5790505b5090506000806001868688612eae9190615558565b612eb891906153f4565b612ec2919061559a565b90505b60018587612ed39190615558565b612edd919061559a565b81101561331357600c6000828152602001908152602001600020604051806101800160405290816000820154815260200160018201548152602001600282018054612f2790614f5b565b80601f0160208091040260200160405190810160405280929190818152602001828054612f5390614f5b565b8015612fa05780601f10612f7557610100808354040283529160200191612fa0565b820191906000526020600020905b815481529060010190602001808311612f8357829003601f168201915b505050505081526020016003820154815260200160048201805480602002602001604051908101604052809291908181526020016000905b82821015613084578382906000526020600020018054612ff790614f5b565b80601f016020809104026020016040519081016040528092919081815260200182805461302390614f5b565b80156130705780601f1061304557610100808354040283529160200191613070565b820191906000526020600020905b81548152906001019060200180831161305357829003601f168201915b505050505081526020019060010190612fd8565b505050508152602001600582015481526020016006820180546130a690614f5b565b80601f01602080910402602001604051908101604052809291908181526020018280546130d290614f5b565b801561311f5780601f106130f45761010080835404028352916020019161311f565b820191906000526020600020905b81548152906001019060200180831161310257829003601f168201915b5050505050815260200160078201805461313890614f5b565b80601f016020809104026020016040519081016040528092919081815260200182805461316490614f5b565b80156131b15780601f10613186576101008083540402835291602001916131b1565b820191906000526020600020905b81548152906001019060200180831161319457829003601f168201915b505050505081526020016008820160009054906101000a900460ff161515151581526020016008820160019054906101000a900473ffffffffffffffffffffffffffffffffffffffff1673ffffffffffffffffffffffffffffffffffffffff1673ffffffffffffffffffffffffffffffffffffffff1681526020016008820160159054906101000a900460ff16151515158152602001600982018054806020026020016040519081016040528092919081815260200182805480156132cb57602002820191906000526020600020905b8160009054906101000a900473ffffffffffffffffffffffffffffffffffffffff1673ffffffffffffffffffffffffffffffffffffffff1681526020019060010190808311613281575b5050505050815250508383815181106132e7576132e6614f8c565b5b602002602001018190525081806132fd90614fea565b925050808061330b90614fea565b915050612ec5565b50819250505092915050565b600c60205280600052604060002060009150905080600001549080600101549080600201805461334e90614f5b565b80601f016020809104026020016040519081016040528092919081815260200182805461337a90614f5b565b80156133c75780601f1061339c576101008083540402835291602001916133c7565b820191906000526020600020905b8154815290600101906020018083116133aa57829003601f168201915b5050505050908060030154908060050154908060060180546133e890614f5b565b80601f016020809104026020016040519081016040528092919081815260200182805461341490614f5b565b80156134615780601f1061343657610100808354040283529160200191613461565b820191906000526020600020905b81548152906001019060200180831161344457829003601f168201915b50505050509080600701805461347690614f5b565b80601f01602080910402602001604051908101604052809291908181526020018280546134a290614f5b565b80156134ef5780601f106134c4576101008083540402835291602001916134ef565b820191906000526020600020905b8154815290600101906020018083116134d257829003601f168201915b5050505050908060080160009054906101000a900460ff16908060080160019054906101000a900473ffffffffffffffffffffffffffffffffffffffff16908060080160159054906101000a900460ff1690508a565b600b60003373ffffffffffffffffffffffffffffffffffffffff1673ffffffffffffffffffffffffffffffffffffffff16815260200190815260200160002060009054906101000a900460ff161561359c57600080fd5b6001600b60003373ffffffffffffffffffffffffffffffffffffffff1673ffffffffffffffffffffffffffffffffffffffff16815260200190815260200160002060006101000a81548160ff0219169083151502179055506001600081548092919061360790614fea565b9190505550600a600060018152602001908152602001600020339080600181540180825580915050600190039060005260206000200160009091909190916101000a81548173ffffffffffffffffffffffffffffffffffffffff021916908373ffffffffffffffffffffffffffffffffffffffff1602179055503360096000600154815260200190815260200160002060006101000a81548173ffffffffffffffffffffffffffffffffffffffff021916908373ffffffffffffffffffffffffffffffffffffffff1602179055506040518061012001604052803373ffffffffffffffffffffffffffffffffffffffff16815260200188815260200187815260200186815260200185815260200184815260200183815260200182815260200160001515815250600860003373ffffffffffffffffffffffffffffffffffffffff1673ffffffffffffffffffffffffffffffffffffffff16815260200190815260200160002060008201518160000160006101000a81548173ffffffffffffffffffffffffffffffffffffffff021916908373ffffffffffffffffffffffffffffffffffffffff16021790555060208201518160010190816137c9919061524a565b506040820151816002015560608201518160030190816137e9919061524a565b5060808201518160040190816137ff919061524a565b5060a0820151816005019081613815919061524a565b5060c082015181600601908161382b919061524a565b5060e0820151816007019081613841919061524a565b506101008201518160080160006101000a81548160ff02191690831515021790555090505050505050505050565b6060600060035467ffffffffffffffff81111561388f5761388e614111565b5b6040519080825280602002602001820160405280156138bd5781602001602082028036833780820191505090505b50905060005b60035481101561397e57601060006001815260200190815260200160002081815481106138f3576138f2614f8c565b5b9060005260206000200160009054906101000a900473ffffffffffffffffffffffffffffffffffffffff1682828151811061393157613930614f8c565b5b602002602001019073ffffffffffffffffffffffffffffffffffffffff16908173ffffffffffffffffffffffffffffffffffffffff1681525050808061397690614fea565b9150506138c3565b508091505090565b60008054906101000a900473ffffffffffffffffffffffffffffffffffffffff1673ffffffffffffffffffffffffffffffffffffffff163373ffffffffffffffffffffffffffffffffffffffff1614613a14576040517f08c379a0000000000000000000000000000000000000000000000000000000008152600401613a0b9061561a565b60405180910390fd5b806000806101000a81548173ffffffffffffffffffffffffffffffffffffffff021916908373ffffffffffffffffffffffffffffffffffffffff16021790555050565b6060600c6000838152602001908152602001600020600901805480602002602001604051908101604052809291908181526020018280548015613aef57602002820191906000526020600020905b8160009054906101000a900473ffffffffffffffffffffffffffffffffffffffff1673ffffffffffffffffffffffffffffffffffffffff1681526020019060010190808311613aa5575b50505050509050919050565b613b04336110ce565b613b43576040517f08c379a0000000000000000000000000000000000000000000000000000000008152600401613b3a906156ac565b60405180910390fd5b6000600c60008381526020019081526020016000206001015403613b9c576040517f08c379a0000000000000000000000000000000000000000000000000000000008152600401613b9390615718565b60405180910390fd5b6001600c600083815260200190815260200160002060080160156101000a81548160ff02191690831515021790555050565b828054828255906000526020600020908101928215613c16579160200282015b82811115613c15578251829081613c05919061524a565b5091602001919060010190613bee565b5b509050613c239190613d2c565b5090565b828054828255906000526020600020908101928215613ca0579160200282015b82811115613c9f5782518260006101000a81548173ffffffffffffffffffffffffffffffffffffffff021916908373ffffffffffffffffffffffffffffffffffffffff16021790555091602001919060010190613c47565b5b509050613cad9190613d50565b5090565b6040518061018001604052806000815260200160008152602001606081526020016000815260200160608152602001600081526020016060815260200160608152602001600015158152602001600073ffffffffffffffffffffffffffffffffffffffff168152602001600015158152602001606081525090565b5b80821115613d4c5760008181613d439190613d6d565b50600101613d2d565b5090565b5b80821115613d69576000816000905550600101613d51565b5090565b508054613d7990614f5b565b6000825580601f10613d8b5750613daa565b601f016020900490600052602060002090810190613da99190613d50565b5b50565b6000819050919050565b613dc081613dad565b82525050565b6000602082019050613ddb6000830184613db7565b92915050565b6000604051905090565b600080fd5b600080fd5b600073ffffffffffffffffffffffffffffffffffffffff82169050919050565b6000613e2082613df5565b9050919050565b613e3081613e15565b8114613e3b57600080fd5b50565b600081359050613e4d81613e27565b92915050565b600060208284031215613e6957613e68613deb565b5b6000613e7784828501613e3e565b91505092915050565b60008115159050919050565b613e9581613e80565b82525050565b6000602082019050613eb06000830184613e8c565b92915050565b613ebf81613dad565b8114613eca57600080fd5b50565b600081359050613edc81613eb6565b92915050565b600080600060608486031215613efb57613efa613deb565b5b6000613f0986828701613e3e565b9350506020613f1a86828701613e3e565b9250506040613f2b86828701613ecd565b9150509250925092565b613f3e81613e15565b82525050565b600081519050919050565b600082825260208201905092915050565b60005b83811015613f7e578082015181840152602081019050613f63565b60008484015250505050565b6000601f19601f8301169050919050565b6000613fa682613f44565b613fb08185613f4f565b9350613fc0818560208601613f60565b613fc981613f8a565b840191505092915050565b6000608082019050613fe96000830187613f35565b8181036020830152613ffb8186613f9b565b905061400a6040830185613db7565b818103606083015261401c8184613f9b565b905095945050505050565b600081519050919050565b600082825260208201905092915050565b6000819050602082019050919050565b61405c81613dad565b82525050565b600061406e8383614053565b60208301905092915050565b6000602082019050919050565b600061409282614027565b61409c8185614032565b93506140a783614043565b8060005b838110156140d85781516140bf8882614062565b97506140ca8361407a565b9250506001810190506140ab565b5085935050505092915050565b600060208201905081810360008301526140ff8184614087565b905092915050565b600080fd5b600080fd5b7f4e487b7100000000000000000000000000000000000000000000000000000000600052604160045260246000fd5b61414982613f8a565b810181811067ffffffffffffffff8211171561416857614167614111565b5b80604052505050565b600061417b613de1565b90506141878282614140565b919050565b600067ffffffffffffffff8211156141a7576141a6614111565b5b6141b082613f8a565b9050602081019050919050565b82818337600083830152505050565b60006141df6141da8461418c565b614171565b9050828152602081018484840111156141fb576141fa61410c565b5b6142068482856141bd565b509392505050565b600082601f83011261422357614222614107565b5b81356142338482602086016141cc565b91505092915050565b600080600080600060a0868803121561425857614257613deb565b5b600061426688828901613e3e565b955050602086013567ffffffffffffffff81111561428757614286613df0565b5b6142938882890161420e565b94505060406142a488828901613ecd565b935050606086013567ffffffffffffffff8111156142c5576142c4613df0565b5b6142d18882890161420e565b925050608086013567ffffffffffffffff8111156142f2576142f1613df0565b5b6142fe8882890161420e565b9150509295509295909350565b600081519050919050565b600082825260208201905092915050565b6000819050602082019050919050565b61434081613e15565b82525050565b60006143528383614337565b60208301905092915050565b6000602082019050919050565b60006143768261430b565b6143808185614316565b935061438b83614327565b8060005b838110156143bc5781516143a38882614346565b97506143ae8361435e565b92505060018101905061438f565b5085935050505092915050565b600060208201905081810360008301526143e3818461436b565b905092915050565b6000806040838503121561440257614401613deb565b5b600061441085828601613ecd565b925050602061442185828601613ecd565b9150509250929050565b60006020820190506144406000830184613f35565b92915050565b600060a08201905061445b6000830188613f35565b818103602083015261446d8187613f9b565b905061447c6040830186613db7565b818103606083015261448e8185613f9b565b905081810360808301526144a28184613f9b565b90509695505050505050565b6000602082840312156144c4576144c3613deb565b5b60006144d284828501613ecd565b91505092915050565b600080604083850312156144f2576144f1613deb565b5b600061450085828601613e3e565b925050602061451185828601613ecd565b9150509250929050565b600081519050919050565b600082825260208201905092915050565b6000819050602082019050919050565b600082825260208201905092915050565b600061456382613f44565b61456d8185614547565b935061457d818560208601613f60565b61458681613f8a565b840191505092915050565b600061459d8383614558565b905092915050565b6000602082019050919050565b60006145bd8261451b565b6145c78185614526565b9350836020820285016145d985614537565b8060005b8581101561461557848403895281516145f68582614591565b9450614601836145a5565b925060208a019950506001810190506145dd565b50829750879550505050505092915050565b6000602082019050818103600083015261464181846145b2565b905092915050565b600067ffffffffffffffff82111561466457614663614111565b5b602082029050602081019050919050565b600080fd5b600061468d61468884614649565b614171565b905080838252602082019050602084028301858111156146b0576146af614675565b5b835b818110156146f757803567ffffffffffffffff8111156146d5576146d4614107565b5b8086016146e2898261420e565b855260208501945050506020810190506146b2565b5050509392505050565b600082601f83011261471657614715614107565b5b813561472684826020860161467a565b91505092915050565b600080600080600080600060e0888a03121561474e5761474d613deb565b5b600088013567ffffffffffffffff81111561476c5761476b613df0565b5b6147788a828b01614701565b97505060206147898a828b01613ecd565b965050604088013567ffffffffffffffff8111156147aa576147a9613df0565b5b6147b68a828b0161420e565b95505060606147c78a828b01613ecd565b94505060806147d88a828b01613ecd565b93505060a088013567ffffffffffffffff8111156147f9576147f8613df0565b5b6148058a828b0161420e565b92505060c088013567ffffffffffffffff81111561482657614825613df0565b5b6148328a828b0161420e565b91505092959891949750929550565b6000806000806080858703121561485b5761485a613deb565b5b600061486987828801613e3e565b945050602085013567ffffffffffffffff81111561488a57614889613df0565b5b6148968782880161420e565b93505060406148a787828801613ecd565b925050606085013567ffffffffffffffff8111156148c8576148c7613df0565b5b6148d48782880161420e565b91505092959194509250565b600081519050919050565b600082825260208201905092915050565b6000819050602082019050919050565b600082825260208201905092915050565b60006149288261451b565b614932818561490c565b93508360208202850161494485614537565b8060005b8581101561498057848403895281516149618582614591565b945061496c836145a5565b925060208a01995050600181019050614948565b50829750879550505050505092915050565b61499b81613e80565b82525050565b600082825260208201905092915050565b60006149bd8261430b565b6149c781856149a1565b93506149d283614327565b8060005b83811015614a035781516149ea8882614346565b97506149f58361435e565b9250506001810190506149d6565b5085935050505092915050565b600061018083016000830151614a296000860182614053565b506020830151614a3c6020860182614053565b5060408301518482036040860152614a548282614558565b9150506060830151614a696060860182614053565b5060808301518482036080860152614a81828261491d565b91505060a0830151614a9660a0860182614053565b5060c083015184820360c0860152614aae8282614558565b91505060e083015184820360e0860152614ac88282614558565b915050610100830151614adf610100860182614992565b50610120830151614af4610120860182614337565b50610140830151614b09610140860182614992565b50610160830151848203610160860152614b2382826149b2565b9150508091505092915050565b6000614b3c8383614a10565b905092915050565b6000602082019050919050565b6000614b5c826148e0565b614b6681856148eb565b935083602082028501614b78856148fc565b8060005b85811015614bb45784840389528151614b958582614b30565b9450614ba083614b44565b925060208a01995050600181019050614b7c565b50829750879550505050505092915050565b60006020820190508181036000830152614be08184614b51565b905092915050565b600061012082019050614bfe600083018c613f35565b8181036020830152614c10818b613f9b565b9050614c1f604083018a613db7565b8181036060830152614c318189613f9b565b90508181036080830152614c458188613f9b565b905081810360a0830152614c598187613f9b565b905081810360c0830152614c6d8186613f9b565b905081810360e0830152614c818185613f9b565b9050614c91610100830184613e8c565b9a9950505050505050505050565b600061014082019050614cb5600083018d613db7565b614cc2602083018c613db7565b8181036040830152614cd4818b613f9b565b9050614ce3606083018a613db7565b614cf06080830189613db7565b81810360a0830152614d028188613f9b565b905081810360c0830152614d168187613f9b565b9050614d2560e0830186613e8c565b614d33610100830185613f35565b614d41610120830184613e8c565b9b9a5050505050505050505050565b600080600080600080600060e0888a031215614d6f57614d6e613deb565b5b600088013567ffffffffffffffff811115614d8d57614d8c613df0565b5b614d998a828b0161420e565b9750506020614daa8a828b01613ecd565b965050604088013567ffffffffffffffff811115614dcb57614dca613df0565b5b614dd78a828b0161420e565b955050606088013567ffffffffffffffff811115614df857614df7613df0565b5b614e048a828b0161420e565b945050608088013567ffffffffffffffff811115614e2557614e24613df0565b5b614e318a828b0161420e565b93505060a088013567ffffffffffffffff811115614e5257614e51613df0565b5b614e5e8a828b0161420e565b92505060c088013567ffffffffffffffff811115614e7f57614e7e613df0565b5b614e8b8a828b0161420e565b91505092959891949750929550565b7f796f752073686f756c642062652074656873696c64617220746f2063616c6c2060008201527f746869732066756e6374696f6e00000000000000000000000000000000000000602082015250565b6000614ef6602d83613f4f565b9150614f0182614e9a565b604082019050919050565b60006020820190508181036000830152614f2581614ee9565b9050919050565b7f4e487b7100000000000000000000000000000000000000000000000000000000600052602260045260246000fd5b60006002820490506001821680614f7357607f821691505b602082108103614f8657614f85614f2c565b5b50919050565b7f4e487b7100000000000000000000000000000000000000000000000000000000600052603260045260246000fd5b7f4e487b7100000000000000000000000000000000000000000000000000000000600052601160045260246000fd5b6000614ff582613dad565b91507fffffffffffffffffffffffffffffffffffffffffffffffffffffffffffffffff820361502757615026614fbb565b5b600182019050919050565b7f66756e6374696f6e2063616c6c6572206973206e6f742054656873696c646172600082015250565b6000615068602083613f4f565b915061507382615032565b602082019050919050565b600060208201905081810360008301526150978161505b565b9050919050565b60008190508160005260206000209050919050565b60006020601f8301049050919050565b600082821b905092915050565b6000600883026151007fffffffffffffffffffffffffffffffffffffffffffffffffffffffffffffffff826150c3565b61510a86836150c3565b95508019841693508086168417925050509392505050565b6000819050919050565b600061514761514261513d84613dad565b615122565b613dad565b9050919050565b6000819050919050565b6151618361512c565b61517561516d8261514e565b8484546150d0565b825550505050565b600090565b61518a61517d565b615195818484615158565b505050565b5b818110156151b9576151ae600082615182565b60018101905061519b565b5050565b601f8211156151fe576151cf8161509e565b6151d8846150b3565b810160208510156151e7578190505b6151fb6151f3856150b3565b83018261519a565b50505b505050565b600082821c905092915050565b600061522160001984600802615203565b1980831691505092915050565b600061523a8383615210565b9150826002028217905092915050565b61525382613f44565b67ffffffffffffffff81111561526c5761526b614111565b5b6152768254614f5b565b6152818282856151bd565b600060209050601f8311600181146152b457600084156152a2578287015190505b6152ac858261522e565b865550615314565b601f1984166152c28661509e565b60005b828110156152ea578489015182556001820191506020850194506020810190506152c5565b868310156153075784890151615303601f891682615210565b8355505b6001600288020188555050505b505050505050565b7f596f7520617265206e6f742053444d0000000000000000000000000000000000600082015250565b6000615352600f83613f4f565b915061535d8261531c565b602082019050919050565b6000602082019050818103600083015261538181615345565b9050919050565b7f54656873696c61646172206e6f7420666f756e64000000000000000000000000600082015250565b60006153be601483613f4f565b91506153c982615388565b602082019050919050565b600060208201905081810360008301526153ed816153b1565b9050919050565b60006153ff82613dad565b915061540a83613dad565b925082820390508181111561542257615421614fbb565b5b92915050565b7f4e487b7100000000000000000000000000000000000000000000000000000000600052603160045260246000fd5b600061546282613dad565b91506000820361547557615474614fbb565b5b600182039050919050565b7f4c656b6870616c206e6f7420666f756e64000000000000000000000000000000600082015250565b60006154b6601183613f4f565b91506154c182615480565b602082019050919050565b600060208201905081810360008301526154e5816154a9565b9050919050565b7f66756e6374696f6e2063616c6c6572206973206e6f742053444d000000000000600082015250565b6000615522601a83613f4f565b915061552d826154ec565b602082019050919050565b6000602082019050818103600083015261555181615515565b9050919050565b600061556382613dad565b915061556e83613dad565b925082820261557c81613dad565b9150828204841483151761559357615592614fbb565b5b5092915050565b60006155a582613dad565b91506155b083613dad565b92508282019050808211156155c8576155c7614fbb565b5b92915050565b7f796f7520617265206e6f742053444d0000000000000000000000000000000000600082015250565b6000615604600f83613f4f565b915061560f826155ce565b602082019050919050565b60006020820190508181036000830152615633816155f7565b9050919050565b7f796f752073686f756c64206265206c656b6870616c20746f2063616c6c20746860008201527f69732066756e6374696f6e000000000000000000000000000000000000000000602082015250565b6000615696602b83613f4f565b91506156a18261563a565b604082019050919050565b600060208201905081810360008301526156c581615689565b9050919050565b7f4c616e6420646f65736e27742065786973740000000000000000000000000000600082015250565b6000615702601283613f4f565b915061570d826156cc565b602082019050919050565b60006020820190508181036000830152615731816156f5565b905091905056fea2646970667358221220c83d3d584e0e01fb5301af113eb4480b5dd9e78bea2623c16947f1aec185b03d64736f6c63430008110033",
  "linkReferences": {},
  "deployedLinkReferences": {}
}